{
  "contractName": "TreeTest",
  "abi": [
    {
      "constant": false,
      "inputs": [],
      "name": "test3",
      "outputs": [],
      "payable": false,
      "stateMutability": "nonpayable",
      "type": "function"
    },
    {
      "constant": false,
      "inputs": [],
      "name": "test2",
      "outputs": [],
      "payable": false,
      "stateMutability": "nonpayable",
      "type": "function"
    },
    {
      "constant": false,
      "inputs": [],
      "name": "test1",
      "outputs": [],
      "payable": false,
      "stateMutability": "nonpayable",
      "type": "function"
    },
    {
      "constant": false,
      "inputs": [
        {
          "name": "root",
          "type": "uint32"
        }
      ],
      "name": "testBSTProps",
      "outputs": [
        {
          "name": "succ",
          "type": "bool"
        }
      ],
      "payable": false,
      "stateMutability": "nonpayable",
      "type": "function"
    }
  ],
  "bytecode": "0x6060604052341561000f57600080fd5b6118648061001e6000396000f300606060405260043610610062576000357c0100000000000000000000000000000000000000000000000000000000900463ffffffff1680630a8e8e011461006757806366e41cb71461007c5780636b59084d14610091578063cfc65c74146100a6575b600080fd5b341561007257600080fd5b61007a6100e7565b005b341561008757600080fd5b61008f610327565b005b341561009c57600080fd5b6100a4610425565b005b34156100b157600080fd5b6100cd600480803563ffffffff1690602001909190505061071b565b604051808215151515815260200191505060405180910390f35b6100ef611812565b6000610107601480846108079092919063ffffffff16565b61011d600f80846108079092919063ffffffff16565b610133601980846108079092919063ffffffff16565b610149601780846108079092919063ffffffff16565b61015f601b80846108079092919063ffffffff16565b816000015190506000610171826108a2565b63ffffffff161415151561018157fe5b6005826020015163ffffffff1614151561019757fe5b6101a482600001516108d7565b905060196101b182610914565b63ffffffff161415156101c057fe5b6101d56101d083600001516108d7565b610955565b905060176101e282610914565b63ffffffff161415156101f157fe5b60006101fc826108a2565b63ffffffff1614151561020b57fe5b61021f60198361098e90919063ffffffff16565b6004826020015163ffffffff1614151561023557fe5b81600001519050601461024782610914565b63ffffffff1614151561025657fe5b61026382600001516108d7565b9050601b61027082610914565b63ffffffff1614151561027f57fe5b600061028a826108a2565b63ffffffff161415151561029a57fe5b6102af6102aa83600001516108d7565b6108d7565b905060008163ffffffff161415156102c357fe5b6102d86102d383600001516108d7565b610955565b905060176102e582610914565b63ffffffff161415156102f457fe5b60006102ff826108a2565b63ffffffff1614151561030e57fe5b61031b826000015161071b565b151561032357fe5b5050565b61032f611812565b6000610347601480846108079092919063ffffffff16565b61035d600f80846108079092919063ffffffff16565b610373601980846108079092919063ffffffff16565b610389601780846108079092919063ffffffff16565b81600001519050600061039b826108a2565b63ffffffff16141515156103ab57fe5b6004826020015163ffffffff161415156103c157fe5b6103d5600f8361098e90919063ffffffff16565b6003826020015163ffffffff161415156103eb57fe5b8160000151905060176103fd82610a6d565b63ffffffff1614151561040c57fe5b610419826000015161071b565b151561042157fe5b5050565b61042d611812565b6000610445601480846108079092919063ffffffff16565b61045b600f80846108079092919063ffffffff16565b610471601980846108079092919063ffffffff16565b610487600a80846108079092919063ffffffff16565b816000015190506000610499826108a2565b63ffffffff16141515156104a957fe5b6104c7600f836000015163ffffffff16610ac590919063ffffffff16565b905060006104d4826108a2565b63ffffffff16141515156104e457fe5b6105026019836000015163ffffffff16610ac590919063ffffffff16565b9050600061050f826108a2565b63ffffffff161415151561051f57fe5b610535601180846108079092919063ffffffff16565b61054b600880846108079092919063ffffffff16565b610569600f836000015163ffffffff16610ac590919063ffffffff16565b90506000610576826108a2565b63ffffffff1614151561058557fe5b6105a3600a836000015163ffffffff16610ac590919063ffffffff16565b905060006105b0826108a2565b63ffffffff16141515156105c057fe5b6105de6011836000015163ffffffff16610ac590919063ffffffff16565b905060006105eb826108a2565b63ffffffff16141515156105fb57fe5b6106196008836000015163ffffffff16610ac590919063ffffffff16565b90506000610626826108a2565b63ffffffff1614151561063557fe5b61064b600980846108079092919063ffffffff16565b610669600a836000015163ffffffff16610ac590919063ffffffff16565b90506000610676826108a2565b63ffffffff1614151561068557fe5b6106a36008836000015163ffffffff16610ac590919063ffffffff16565b905060006106b0826108a2565b63ffffffff16141515156106c057fe5b6106e66106e16009846000015163ffffffff16610ac590919063ffffffff16565b610955565b905060086106f382610914565b63ffffffff1614151561070257fe5b61070f826000015161071b565b151561071757fe5b5050565b60006001905060008263ffffffff1614151561080257600061073c83610955565b63ffffffff1614151561077d5780801561077a575061076261075d83610955565b610914565b63ffffffff1661077183610914565b63ffffffff1610155b90505b6000610788836108d7565b63ffffffff161415156107c9578080156107c657506107ae6107a9836108d7565b610914565b63ffffffff166107bd83610914565b63ffffffff1611155b90505b8080156107e357506107e26107dd83610955565b61071b565b5b90508080156107ff57506107fe6107f9836108d7565b61071b565b5b90505b919050565b6000610811610b4b565b905061081d8184610b5c565b6108278183610bb2565b610835846000015182610c0c565b61083e81610d65565b80846000019063ffffffff16908163ffffffff16815250505b60006108668560000151610df3565b63ffffffff1614151561089c576108808460000151610df3565b846000019063ffffffff16908163ffffffff1681525050610857565b50505050565b60008060006380000000905060008463ffffffff161415156108c5578084511691505b601f829060020a900492505050919050565b60008060006bffffffff0000000000000000905060008463ffffffff16141515610902578084165191505b6040829060020a900492505050919050565b60008060006fffffffff000000000000000000000000905060008463ffffffff16141515610943578084165191505b6060829060020a900492505050919050565b600080600067ffffffff00000000905060008463ffffffff1614151561097c578084511691505b6020829060020a900492505050919050565b60008061099f846000015184610ac5565b915060008263ffffffff1614156109b557610a67565b60006109c083610955565b63ffffffff161480156109e1575060006109d9836108d7565b63ffffffff16145b15610a5c576109ef82610df3565b905060008163ffffffff161415610a1e576000846000019063ffffffff16908163ffffffff1681525050610a57565b8163ffffffff16610a2e82610955565b63ffffffff161415610a4a57610a45816000610e1a565b610a56565b610a55816000610e68565b5b5b610a66565b610a6582610eba565b5b5b50505050565b600080600060807fffffffffffffffffffffffffffffffffffffffffffffffffffffffffffffffff9060020a02905060008463ffffffff16141515610ab3578084165191505b6080829060020a900492505050919050565b6000808363ffffffff161480610aee57508163ffffffff16610ae684610914565b63ffffffff16145b15610afb57829050610b45565b8163ffffffff16610b0b84610914565b63ffffffff161015610b3057610b29610b2384610955565b83610ac5565b9050610b45565b610b42610b3c846108d7565b83610ac5565b90505b92915050565b600060405190506020810160405290565b6000806fffffffff0000000000000000000000007fffffffffffffffffffffffffffffffffffffffffffffffffffffffffffffffff18915060608363ffffffff169060020a029050818451168117845250505050565b60008073ffffffff000000000000000000000000000000007fffffffffffffffffffffffffffffffffffffffffffffffffffffffffffffffff18915060808363ffffffff169060020a029050818451168117845250505050565b60008263ffffffff1614158015610c3e5750610c2782610914565b63ffffffff16610c3682610914565b63ffffffff16105b15610cac576000610c4e83610955565b63ffffffff16141515610c7257610c6d610c6783610955565b82610c0c565b610d61565b610c7c8282610e1a565b610c868183610f9a565b610c91816000610e1a565b610c9c816000610e68565b610ca7816000610fd2565b610d60565b60008263ffffffff1614158015610cde5750610cc782610914565b63ffffffff16610cd682610914565b63ffffffff16115b15610d4c576000610cee836108d7565b63ffffffff16141515610d1257610d0d610d07836108d7565b82610c0c565b610d61565b610d1c8282610e68565b610d268183610f9a565b610d31816000610e1a565b610d3c816000610e68565b610d47816000610fd2565b610d5f565b610d5e82610d598361100a565b611062565b5b5b5b5050565b6000610d7082610df3565b63ffffffff161415610d8a57610d85816110b9565b610df0565b6000610d9d610d9883610df3565b6108a2565b63ffffffff16141515610db757610db26110df565b610def565b6000610dca610dc5836110e1565b6108a2565b63ffffffff161415610de457610ddf81611100565b610dee565b610ded8161114d565b5b5b5b50565b600080637fffffff905060008363ffffffff16141515610e14578083511691505b50919050565b60008067ffffffff000000007fffffffffffffffffffffffffffffffffffffffffffffffffffffffffffffffff18915060208363ffffffff169060020a029050818451168117845250505050565b6000806bffffffff00000000000000007fffffffffffffffffffffffffffffffffffffffffffffffffffffffffffffffff18915060408363ffffffff169060020a029050818451168117845250505050565b600080610ec6836108d7565b63ffffffff161415610ee057610edb826108d7565b610eea565b610ee982610955565b5b9050610efe81610ef984610df3565b610f9a565b8163ffffffff16610f16610f1184610df3565b610955565b63ffffffff161415610f3957610f34610f2e83610df3565b82610e1a565b610f4c565b610f4b610f4583610df3565b82610e68565b5b6000610f57836108a2565b63ffffffff16141515610f96576000610f6f826108a2565b63ffffffff161415610f8b57610f86816001610fd2565b610f95565b610f94816111ed565b5b5b5050565b6000637fffffff7fffffffffffffffffffffffffffffffffffffffffffffffffffffffffffffffff1890508083511682178352505050565b600063800000007fffffffffffffffffffffffffffffffffffffffffffffffffffffffffffffffff1890508083511682178352505050565b600080600060807fffffffffffffffffffffffffffffffffffffffffffffffffffffffffffffffff9060020a02905060008463ffffffff16141515611050578084165191505b6080829060020a900492505050919050565b60008060807fffffffffffffffffffffffffffffffffffffffffffffffffffffffffffffffff9060020a0291506080836fffffffffffffffffffffffffffffffff169060020a029050818451168117845250505050565b60006110c482610df3565b63ffffffff1614156110dc576110db816001610fd2565b5b50565b565b6000806110ed83610df3565b90506110f881611212565b915050919050565b61111361110c82610df3565b6001610fd2565b61112661111f826110e1565b6001610fd2565b61113961113282611276565b6000610fd2565b61114a61114582611276565b610d65565b50565b60008061115983610df3565b915061116483611276565b905061117761117282610955565b6108d7565b63ffffffff168363ffffffff1614156111a45761119382611295565b5061119d83610955565b92506111df565b6111b56111b0826108d7565b610955565b63ffffffff168363ffffffff1614156111de576111d182611305565b506111db836108d7565b92505b5b6111e883611375565b505050565b60006111f882610df3565b63ffffffff1614151561120f5761120e816113df565b5b50565b60008061121e83610df3565b905060008163ffffffff1614156112385760009150611270565b61124181610955565b63ffffffff168363ffffffff1614156112645761125d816108d7565b9150611270565b61126d81610955565b91505b50919050565b60008061128283610df3565b905061128d81610df3565b915050919050565b6000806112a1836108d7565b90506112bd6112af846108d7565b6112b883610955565b61147d565b506112d06112ca82610955565b8461147d565b506112eb6112dd82610df3565b6112e685610df3565b61147d565b506112fe6112f884610df3565b8261147d565b5050919050565b60008061131183610955565b905061132d61131f84610955565b611328836108d7565b61147d565b5061134061133a826108d7565b8461147d565b5061135b61134d82610df3565b61135685610df3565b61147d565b5061136e61136884610df3565b8261147d565b5050919050565b60008061138183610df3565b915061138c83611276565b905061139782610955565b63ffffffff168363ffffffff1614156113b9576113b381611305565b506113c4565b6113c281611295565b505b6113cf826001610fd2565b6113da816000610fd2565b505050565b60006113ea82611212565b905060006113f7826108a2565b63ffffffff1614156114705761141661140f83610df3565b6000610fd2565b611421816001610fd2565b61143261142d83610df3565b610955565b63ffffffff168263ffffffff16141561145c5761145661145183610df3565b611295565b5061146f565b61146d61146883610df3565b611305565b505b5b61147982611489565b5050565b60008151835292915050565b600061149482611212565b905060006114a96114a484610df3565b6108a2565b63ffffffff16141580156114cc575060006114c3826108a2565b63ffffffff1614155b80156114ef575060006114e66114e183610955565b6108a2565b63ffffffff1614155b801561151257506000611509611504836108d7565b6108a2565b63ffffffff1614155b1561153857611522816000610fd2565b61153361152e83610df3565b6111ed565b611542565b61154182611546565b5b5050565b600061155182611212565b9050600061156661156184610df3565b6108a2565b63ffffffff161480156115885750600061157f826108a2565b63ffffffff1614155b80156115ab575060006115a261159d83610955565b6108a2565b63ffffffff1614155b80156115ce575060006115c56115c0836108d7565b6108a2565b63ffffffff1614155b156115f6576115de816000610fd2565b6115f16115ea83610df3565b6000610fd2565b611600565b6115ff82611604565b5b5050565b600061160f82611212565b9050600061161c826108a2565b63ffffffff161415156117535761163a61163583610df3565b610955565b63ffffffff168263ffffffff1614801561166b5750600061166261165d836108d7565b6108a2565b63ffffffff1614155b801561168d5750600061168561168083610955565b6108a2565b63ffffffff16145b156116bf5761169d816000610fd2565b6116b06116a982610955565b6000610fd2565b6116b981611305565b50611752565b6116d06116cb83610df3565b6108d7565b63ffffffff168263ffffffff16148015611701575060006116f86116f383610955565b6108a2565b63ffffffff1614155b80156117235750600061171b611716836108d7565b6108a2565b63ffffffff16145b1561175157611733816000610fd2565b61174661173f826108d7565b6001610fd2565b61174f81611295565b505b5b5b61175c82611760565b5050565b600061176b82611212565b90506117878161178261177d85610df3565b6108a2565b610fd2565b61179a61179383610df3565b6001610fd2565b6117ab6117a683610df3565b610955565b63ffffffff168263ffffffff1614156117e8576117d16117ca826108d7565b6001610fd2565b6117e26117dd83610df3565b611295565b5061180e565b6117fb6117f482610955565b6001610fd2565b61180c61180783610df3565b611305565b505b5050565b6040805190810160405280600063ffffffff168152602001600063ffffffff16815250905600a165627a7a7230582056bffc6b6b6c5b43cf2b7887da3e848f73807c41e69eb4211871e7d6e1f3fa590029",
  "source": "pragma solidity ^0.4.18;\n\nimport \"RedBlackTree.sol\";\n\ncontract TreeTest {\n  using RedBlackTree for *;\n\n  function test1() public {\n    RedBlackTree.Tree memory tree;\n\n    tree.insert32(20,20);\n    tree.insert32(15,15);\n    tree.insert32(25,25);\n    tree.insert32(10,10);\n\n    uint32 nodeP = tree.root;\n    assert(RedBlackTree.isBlack(nodeP) != 0);\n\n    nodeP = tree.root.search(15);\n    assert(RedBlackTree.isBlack(nodeP) != 0);\n\n    nodeP = tree.root.search(25);\n    assert(RedBlackTree.isBlack(nodeP) != 0);\n\n    tree.insert32(17,17);\n    tree.insert32(8,8);\n\n    nodeP = tree.root.search(15);\n    assert(RedBlackTree.isBlack(nodeP) == 0);\n\n    nodeP = tree.root.search(10);\n    assert(RedBlackTree.isBlack(nodeP) != 0);\n\n    nodeP = tree.root.search(17);\n    assert(RedBlackTree.isBlack(nodeP) != 0);\n\n    nodeP = tree.root.search(8);\n    assert(RedBlackTree.isBlack(nodeP) == 0);\n\n    tree.insert32(9,9);\n\n    nodeP = tree.root.search(10);\n    assert(RedBlackTree.isBlack(nodeP) == 0);\n\n    nodeP = tree.root.search(8);\n    assert(RedBlackTree.isBlack(nodeP) != 0);\n\n    nodeP = RedBlackTree.left(tree.root.search(9));\n    assert(RedBlackTree.key(nodeP) == 8);\n\n    assert(testBSTProps(tree.root));\n  }\n\n  function test2() public {\n    RedBlackTree.Tree memory tree;\n\n    tree.insert32(20,20);\n    tree.insert32(15,15);\n    tree.insert32(25,25);\n    tree.insert32(23,23);\n\n    uint32 nodeP = tree.root;\n    assert(RedBlackTree.isBlack(nodeP) != 0);\n    assert(tree.size == 4);\n\n    tree.remove(15);\n    assert(tree.size == 3);\n\n    nodeP = tree.root;\n    assert(RedBlackTree.value32(nodeP) == 23);\n\n    assert(testBSTProps(tree.root));\n  }\n\n  function test3() public {\n    RedBlackTree.Tree memory tree;\n\n    tree.insert32(20,20);\n    tree.insert32(15,15);\n    tree.insert32(25,25);\n    tree.insert32(23,23);\n    tree.insert32(27,27);\n\n    uint32 nodeP = tree.root;\n    assert(RedBlackTree.isBlack(nodeP) != 0);\n    assert(tree.size == 5);\n\n    nodeP = RedBlackTree.right(tree.root);\n    assert(RedBlackTree.key(nodeP) == 25);\n\n    nodeP = RedBlackTree.left(RedBlackTree.right(tree.root));\n    assert(RedBlackTree.key(nodeP) == 23);\n    assert(RedBlackTree.isBlack(nodeP) == 0);\n\n    tree.remove(25);\n    assert(tree.size == 4);\n   \n    nodeP = tree.root;\n    assert(RedBlackTree.key(nodeP) == 20);\n    \n    nodeP = RedBlackTree.right(tree.root);\n    assert(RedBlackTree.key(nodeP) == 27);\n    assert(RedBlackTree.isBlack(nodeP) != 0);\n    \n    nodeP = RedBlackTree.right(RedBlackTree.right(tree.root));\n    assert(nodeP == 0);\n    \n    nodeP = RedBlackTree.left(RedBlackTree.right(tree.root));\n    assert(RedBlackTree.key(nodeP) == 23);\n    assert(RedBlackTree.isBlack(nodeP) == 0);\n    \n    assert(testBSTProps(tree.root));\n  }\n\n  function testBSTProps(uint32 root) public returns (bool succ) { \n    succ = true;\n    if (root != 0) {\n      if (RedBlackTree.left(root) != 0)\n        succ = succ && RedBlackTree.key(root) >= RedBlackTree.key(RedBlackTree.left(root));\n      if (RedBlackTree.right(root) != 0)\n        succ = succ && RedBlackTree.key(root) <= RedBlackTree.key(RedBlackTree.right(root));\n      succ = succ && testBSTProps(RedBlackTree.left(root));\n      succ = succ && testBSTProps(RedBlackTree.right(root));\n    }\n  }\n}\n",
  "sourcePath": "/home/patrick/solidity/SolidityTree/contracts/TreeTest.sol",
  "compiler": {
    "name": "solc",
    "version": "0.4.18+commit.9cf6e910.Emscripten.clang"
  },
  "schemaVersion": "1.0.1",
  "updatedAt": "2018-03-03T20:40:39.267Z"
}